{
	"contracts/Find.sol": {
		"FindMinMaxValue": {
			"abi": [
				{
					"inputs": [],
					"name": "maxValue_uint",
					"outputs": [
						{
							"internalType": "uint256",
							"name": "",
							"type": "uint256"
						}
					],
					"stateMutability": "view",
					"type": "function"
				},
				{
					"inputs": [],
					"name": "maxValue_uint16",
					"outputs": [
						{
							"internalType": "uint16",
							"name": "",
							"type": "uint16"
						}
					],
					"stateMutability": "view",
					"type": "function"
				},
				{
					"inputs": [],
					"name": "maxValue_uint256",
					"outputs": [
						{
							"internalType": "uint256",
							"name": "",
							"type": "uint256"
						}
					],
					"stateMutability": "view",
					"type": "function"
				},
				{
					"inputs": [],
					"name": "maxValue_uint32",
					"outputs": [
						{
							"internalType": "uint32",
							"name": "",
							"type": "uint32"
						}
					],
					"stateMutability": "view",
					"type": "function"
				},
				{
					"inputs": [],
					"name": "maxValue_uint8",
					"outputs": [
						{
							"internalType": "uint8",
							"name": "",
							"type": "uint8"
						}
					],
					"stateMutability": "view",
					"type": "function"
				},
				{
					"inputs": [],
					"name": "minValue_uint16",
					"outputs": [
						{
							"internalType": "uint16",
							"name": "",
							"type": "uint16"
						}
					],
					"stateMutability": "view",
					"type": "function"
				},
				{
					"inputs": [],
					"name": "minValue_uint256",
					"outputs": [
						{
							"internalType": "uint256",
							"name": "",
							"type": "uint256"
						}
					],
					"stateMutability": "view",
					"type": "function"
				},
				{
					"inputs": [],
					"name": "minValue_uint32",
					"outputs": [
						{
							"internalType": "uint32",
							"name": "",
							"type": "uint32"
						}
					],
					"stateMutability": "view",
					"type": "function"
				},
				{
					"inputs": [],
					"name": "minValue_uint8",
					"outputs": [
						{
							"internalType": "uint8",
							"name": "",
							"type": "uint8"
						}
					],
					"stateMutability": "view",
					"type": "function"
				}
			],
			"devdoc": {
				"kind": "dev",
				"methods": {},
				"version": 1
			},
			"evm": {
				"assembly": "    /* \"contracts/Find.sol\":59:577  contract FindMinMaxValue {... */\n  mstore(0x40, 0x80)\n    /* \"contracts/Find.sol\":119:133  type(uint).max */\n  0xffffffffffffffffffffffffffffffffffffffffffffffffffffffffffffffff\n    /* \"contracts/Find.sol\":91:133  uint public maxValue_uint = type(uint).max */\n  0x00\n  sstore\n    /* \"contracts/Find.sol\":170:185  type(uint8).max */\n  0xff\n    /* \"contracts/Find.sol\":140:185  uint8 public maxValue_uint8 = type(uint8).max */\n  0x01\n  exp(0x0100, 0x00)\n  dup2\n  sload\n  dup2\n  0xff\n  mul\n  not\n  and\n  swap1\n  dup4\n  0xff\n  and\n  mul\n  or\n  swap1\n  sstore\n  pop\n    /* \"contracts/Find.sol\":222:237  type(uint8).min */\n  0x00\n    /* \"contracts/Find.sol\":192:237  uint8 public minValue_uint8 = type(uint8).min */\n  0x01\n  dup1\n  0x0100\n  exp\n  dup2\n  sload\n  dup2\n  0xff\n  mul\n  not\n  and\n  swap1\n  dup4\n  0xff\n  and\n  mul\n  or\n  swap1\n  sstore\n  pop\n    /* \"contracts/Find.sol\":276:292  type(uint16).max */\n  0xffff\n    /* \"contracts/Find.sol\":244:292  uint16 public maxValue_uint16 = type(uint16).max */\n  0x01\n  exp(0x0100, 0x02)\n  dup2\n  sload\n  dup2\n  0xffff\n  mul\n  not\n  and\n  swap1\n  dup4\n  0xffff\n  and\n  mul\n  or\n  swap1\n  sstore\n  pop\n    /* \"contracts/Find.sol\":331:347  type(uint16).min */\n  0x00\n    /* \"contracts/Find.sol\":299:347  uint16 public minValue_uint16 = type(uint16).min */\n  0x01\n  exp(0x0100, 0x04)\n  dup2\n  sload\n  dup2\n  0xffff\n  mul\n  not\n  and\n  swap1\n  dup4\n  0xffff\n  and\n  mul\n  or\n  swap1\n  sstore\n  pop\n    /* \"contracts/Find.sol\":386:402  type(uint32).max */\n  0xffffffff\n    /* \"contracts/Find.sol\":354:402  uint32 public maxValue_uint32 = type(uint32).max */\n  0x01\n  exp(0x0100, 0x06)\n  dup2\n  sload\n  dup2\n  0xffffffff\n  mul\n  not\n  and\n  swap1\n  dup4\n  0xffffffff\n  and\n  mul\n  or\n  swap1\n  sstore\n  pop\n    /* \"contracts/Find.sol\":441:457  type(uint32).min */\n  0x00\n    /* \"contracts/Find.sol\":409:457  uint32 public minValue_uint32 = type(uint32).min */\n  0x01\n  exp(0x0100, 0x0a)\n  dup2\n  sload\n  dup2\n  0xffffffff\n  mul\n  not\n  and\n  swap1\n  dup4\n  0xffffffff\n  and\n  mul\n  or\n  swap1\n  sstore\n  pop\n    /* \"contracts/Find.sol\":498:515  type(uint256).max */\n  0xffffffffffffffffffffffffffffffffffffffffffffffffffffffffffffffff\n    /* \"contracts/Find.sol\":464:515  uint256 public maxValue_uint256 = type(uint256).max */\n  0x02\n  sstore\n    /* \"contracts/Find.sol\":556:573  type(uint256).min */\n  0x00\n    /* \"contracts/Find.sol\":522:573  uint256 public minValue_uint256 = type(uint256).min */\n  0x03\n  sstore\n    /* \"contracts/Find.sol\":59:577  contract FindMinMaxValue {... */\n  callvalue\n  dup1\n  iszero\n  tag_1\n  jumpi\n  revert(0x00, 0x00)\ntag_1:\n  pop\n  dataSize(sub_0)\n  dup1\n  dataOffset(sub_0)\n  0x00\n  codecopy\n  0x00\n  return\nstop\n\nsub_0: assembly {\n        /* \"contracts/Find.sol\":59:577  contract FindMinMaxValue {... */\n      mstore(0x40, 0x80)\n      callvalue\n      dup1\n      iszero\n      tag_1\n      jumpi\n      revert(0x00, 0x00)\n    tag_1:\n      pop\n      jumpi(tag_2, lt(calldatasize, 0x04))\n      shr(0xe0, calldataload(0x00))\n      dup1\n      0x76cfb3ee\n      gt\n      tag_12\n      jumpi\n      dup1\n      0x76cfb3ee\n      eq\n      tag_7\n      jumpi\n      dup1\n      0x9c89a7bd\n      eq\n      tag_8\n      jumpi\n      dup1\n      0xad5572f8\n      eq\n      tag_9\n      jumpi\n      dup1\n      0xbbebf553\n      eq\n      tag_10\n      jumpi\n      dup1\n      0xc30e1120\n      eq\n      tag_11\n      jumpi\n      jump(tag_2)\n    tag_12:\n      dup1\n      0x10475e4e\n      eq\n      tag_3\n      jumpi\n      dup1\n      0x1905d859\n      eq\n      tag_4\n      jumpi\n      dup1\n      0x4b275d2a\n      eq\n      tag_5\n      jumpi\n      dup1\n      0x5f8b5400\n      eq\n      tag_6\n      jumpi\n    tag_2:\n      revert(0x00, 0x00)\n        /* \"contracts/Find.sol\":91:133  uint public maxValue_uint = type(uint).max */\n    tag_3:\n      tag_13\n      tag_14\n      jump\t// in\n    tag_13:\n      mload(0x40)\n      tag_15\n      swap2\n      swap1\n      tag_16\n      jump\t// in\n    tag_15:\n      mload(0x40)\n      dup1\n      swap2\n      sub\n      swap1\n      return\n        /* \"contracts/Find.sol\":140:185  uint8 public maxValue_uint8 = type(uint8).max */\n    tag_4:\n      tag_17\n      tag_18\n      jump\t// in\n    tag_17:\n      mload(0x40)\n      tag_19\n      swap2\n      swap1\n      tag_20\n      jump\t// in\n    tag_19:\n      mload(0x40)\n      dup1\n      swap2\n      sub\n      swap1\n      return\n        /* \"contracts/Find.sol\":244:292  uint16 public maxValue_uint16 = type(uint16).max */\n    tag_5:\n      tag_21\n      tag_22\n      jump\t// in\n    tag_21:\n      mload(0x40)\n      tag_23\n      swap2\n      swap1\n      tag_24\n      jump\t// in\n    tag_23:\n      mload(0x40)\n      dup1\n      swap2\n      sub\n      swap1\n      return\n        /* \"contracts/Find.sol\":354:402  uint32 public maxValue_uint32 = type(uint32).max */\n    tag_6:\n      tag_25\n      tag_26\n      jump\t// in\n    tag_25:\n      mload(0x40)\n      tag_27\n      swap2\n      swap1\n      tag_28\n      jump\t// in\n    tag_27:\n      mload(0x40)\n      dup1\n      swap2\n      sub\n      swap1\n      return\n        /* \"contracts/Find.sol\":192:237  uint8 public minValue_uint8 = type(uint8).min */\n    tag_7:\n      tag_29\n      tag_30\n      jump\t// in\n    tag_29:\n      mload(0x40)\n      tag_31\n      swap2\n      swap1\n      tag_20\n      jump\t// in\n    tag_31:\n      mload(0x40)\n      dup1\n      swap2\n      sub\n      swap1\n      return\n        /* \"contracts/Find.sol\":299:347  uint16 public minValue_uint16 = type(uint16).min */\n    tag_8:\n      tag_32\n      tag_33\n      jump\t// in\n    tag_32:\n      mload(0x40)\n      tag_34\n      swap2\n      swap1\n      tag_24\n      jump\t// in\n    tag_34:\n      mload(0x40)\n      dup1\n      swap2\n      sub\n      swap1\n      return\n        /* \"contracts/Find.sol\":464:515  uint256 public maxValue_uint256 = type(uint256).max */\n    tag_9:\n      tag_35\n      tag_36\n      jump\t// in\n    tag_35:\n      mload(0x40)\n      tag_37\n      swap2\n      swap1\n      tag_16\n      jump\t// in\n    tag_37:\n      mload(0x40)\n      dup1\n      swap2\n      sub\n      swap1\n      return\n        /* \"contracts/Find.sol\":409:457  uint32 public minValue_uint32 = type(uint32).min */\n    tag_10:\n      tag_38\n      tag_39\n      jump\t// in\n    tag_38:\n      mload(0x40)\n      tag_40\n      swap2\n      swap1\n      tag_28\n      jump\t// in\n    tag_40:\n      mload(0x40)\n      dup1\n      swap2\n      sub\n      swap1\n      return\n        /* \"contracts/Find.sol\":522:573  uint256 public minValue_uint256 = type(uint256).min */\n    tag_11:\n      tag_41\n      tag_42\n      jump\t// in\n    tag_41:\n      mload(0x40)\n      tag_43\n      swap2\n      swap1\n      tag_16\n      jump\t// in\n    tag_43:\n      mload(0x40)\n      dup1\n      swap2\n      sub\n      swap1\n      return\n        /* \"contracts/Find.sol\":91:133  uint public maxValue_uint = type(uint).max */\n    tag_14:\n      sload(0x00)\n      dup2\n      jump\t// out\n        /* \"contracts/Find.sol\":140:185  uint8 public maxValue_uint8 = type(uint8).max */\n    tag_18:\n      0x01\n      0x00\n      swap1\n      sload\n      swap1\n      0x0100\n      exp\n      swap1\n      div\n      0xff\n      and\n      dup2\n      jump\t// out\n        /* \"contracts/Find.sol\":244:292  uint16 public maxValue_uint16 = type(uint16).max */\n    tag_22:\n      0x01\n      0x02\n      swap1\n      sload\n      swap1\n      0x0100\n      exp\n      swap1\n      div\n      0xffff\n      and\n      dup2\n      jump\t// out\n        /* \"contracts/Find.sol\":354:402  uint32 public maxValue_uint32 = type(uint32).max */\n    tag_26:\n      0x01\n      0x06\n      swap1\n      sload\n      swap1\n      0x0100\n      exp\n      swap1\n      div\n      0xffffffff\n      and\n      dup2\n      jump\t// out\n        /* \"contracts/Find.sol\":192:237  uint8 public minValue_uint8 = type(uint8).min */\n    tag_30:\n      0x01\n      dup1\n      sload\n      swap1\n      0x0100\n      exp\n      swap1\n      div\n      0xff\n      and\n      dup2\n      jump\t// out\n        /* \"contracts/Find.sol\":299:347  uint16 public minValue_uint16 = type(uint16).min */\n    tag_33:\n      0x01\n      0x04\n      swap1\n      sload\n      swap1\n      0x0100\n      exp\n      swap1\n      div\n      0xffff\n      and\n      dup2\n      jump\t// out\n        /* \"contracts/Find.sol\":464:515  uint256 public maxValue_uint256 = type(uint256).max */\n    tag_36:\n      sload(0x02)\n      dup2\n      jump\t// out\n        /* \"contracts/Find.sol\":409:457  uint32 public minValue_uint32 = type(uint32).min */\n    tag_39:\n      0x01\n      0x0a\n      swap1\n      sload\n      swap1\n      0x0100\n      exp\n      swap1\n      div\n      0xffffffff\n      and\n      dup2\n      jump\t// out\n        /* \"contracts/Find.sol\":522:573  uint256 public minValue_uint256 = type(uint256).min */\n    tag_42:\n      sload(0x03)\n      dup2\n      jump\t// out\n        /* \"#utility.yul\":7:84   */\n    tag_44:\n        /* \"#utility.yul\":44:51   */\n      0x00\n        /* \"#utility.yul\":73:78   */\n      dup2\n        /* \"#utility.yul\":62:78   */\n      swap1\n      pop\n        /* \"#utility.yul\":7:84   */\n      swap2\n      swap1\n      pop\n      jump\t// out\n        /* \"#utility.yul\":90:208   */\n    tag_45:\n        /* \"#utility.yul\":177:201   */\n      tag_55\n        /* \"#utility.yul\":195:200   */\n      dup2\n        /* \"#utility.yul\":177:201   */\n      tag_44\n      jump\t// in\n    tag_55:\n        /* \"#utility.yul\":172:175   */\n      dup3\n        /* \"#utility.yul\":165:202   */\n      mstore\n        /* \"#utility.yul\":90:208   */\n      pop\n      pop\n      jump\t// out\n        /* \"#utility.yul\":214:436   */\n    tag_16:\n        /* \"#utility.yul\":307:311   */\n      0x00\n        /* \"#utility.yul\":345:347   */\n      0x20\n        /* \"#utility.yul\":334:343   */\n      dup3\n        /* \"#utility.yul\":330:348   */\n      add\n        /* \"#utility.yul\":322:348   */\n      swap1\n      pop\n        /* \"#utility.yul\":358:429   */\n      tag_57\n        /* \"#utility.yul\":426:427   */\n      0x00\n        /* \"#utility.yul\":415:424   */\n      dup4\n        /* \"#utility.yul\":411:428   */\n      add\n        /* \"#utility.yul\":402:408   */\n      dup5\n        /* \"#utility.yul\":358:429   */\n      tag_45\n      jump\t// in\n    tag_57:\n        /* \"#utility.yul\":214:436   */\n      swap3\n      swap2\n      pop\n      pop\n      jump\t// out\n        /* \"#utility.yul\":442:528   */\n    tag_46:\n        /* \"#utility.yul\":477:484   */\n      0x00\n        /* \"#utility.yul\":517:521   */\n      0xff\n        /* \"#utility.yul\":510:515   */\n      dup3\n        /* \"#utility.yul\":506:522   */\n      and\n        /* \"#utility.yul\":495:522   */\n      swap1\n      pop\n        /* \"#utility.yul\":442:528   */\n      swap2\n      swap1\n      pop\n      jump\t// out\n        /* \"#utility.yul\":534:646   */\n    tag_47:\n        /* \"#utility.yul\":617:639   */\n      tag_60\n        /* \"#utility.yul\":633:638   */\n      dup2\n        /* \"#utility.yul\":617:639   */\n      tag_46\n      jump\t// in\n    tag_60:\n        /* \"#utility.yul\":612:615   */\n      dup3\n        /* \"#utility.yul\":605:640   */\n      mstore\n        /* \"#utility.yul\":534:646   */\n      pop\n      pop\n      jump\t// out\n        /* \"#utility.yul\":652:866   */\n    tag_20:\n        /* \"#utility.yul\":741:745   */\n      0x00\n        /* \"#utility.yul\":779:781   */\n      0x20\n        /* \"#utility.yul\":768:777   */\n      dup3\n        /* \"#utility.yul\":764:782   */\n      add\n        /* \"#utility.yul\":756:782   */\n      swap1\n      pop\n        /* \"#utility.yul\":792:859   */\n      tag_62\n        /* \"#utility.yul\":856:857   */\n      0x00\n        /* \"#utility.yul\":845:854   */\n      dup4\n        /* \"#utility.yul\":841:858   */\n      add\n        /* \"#utility.yul\":832:838   */\n      dup5\n        /* \"#utility.yul\":792:859   */\n      tag_47\n      jump\t// in\n    tag_62:\n        /* \"#utility.yul\":652:866   */\n      swap3\n      swap2\n      pop\n      pop\n      jump\t// out\n        /* \"#utility.yul\":872:961   */\n    tag_48:\n        /* \"#utility.yul\":908:915   */\n      0x00\n        /* \"#utility.yul\":948:954   */\n      0xffff\n        /* \"#utility.yul\":941:946   */\n      dup3\n        /* \"#utility.yul\":937:955   */\n      and\n        /* \"#utility.yul\":926:955   */\n      swap1\n      pop\n        /* \"#utility.yul\":872:961   */\n      swap2\n      swap1\n      pop\n      jump\t// out\n        /* \"#utility.yul\":967:1082   */\n    tag_49:\n        /* \"#utility.yul\":1052:1075   */\n      tag_65\n        /* \"#utility.yul\":1069:1074   */\n      dup2\n        /* \"#utility.yul\":1052:1075   */\n      tag_48\n      jump\t// in\n    tag_65:\n        /* \"#utility.yul\":1047:1050   */\n      dup3\n        /* \"#utility.yul\":1040:1076   */\n      mstore\n        /* \"#utility.yul\":967:1082   */\n      pop\n      pop\n      jump\t// out\n        /* \"#utility.yul\":1088:1306   */\n    tag_24:\n        /* \"#utility.yul\":1179:1183   */\n      0x00\n        /* \"#utility.yul\":1217:1219   */\n      0x20\n        /* \"#utility.yul\":1206:1215   */\n      dup3\n        /* \"#utility.yul\":1202:1220   */\n      add\n        /* \"#utility.yul\":1194:1220   */\n      swap1\n      pop\n        /* \"#utility.yul\":1230:1299   */\n      tag_67\n        /* \"#utility.yul\":1296:1297   */\n      0x00\n        /* \"#utility.yul\":1285:1294   */\n      dup4\n        /* \"#utility.yul\":1281:1298   */\n      add\n        /* \"#utility.yul\":1272:1278   */\n      dup5\n        /* \"#utility.yul\":1230:1299   */\n      tag_49\n      jump\t// in\n    tag_67:\n        /* \"#utility.yul\":1088:1306   */\n      swap3\n      swap2\n      pop\n      pop\n      jump\t// out\n        /* \"#utility.yul\":1312:1405   */\n    tag_50:\n        /* \"#utility.yul\":1348:1355   */\n      0x00\n        /* \"#utility.yul\":1388:1398   */\n      0xffffffff\n        /* \"#utility.yul\":1381:1386   */\n      dup3\n        /* \"#utility.yul\":1377:1399   */\n      and\n        /* \"#utility.yul\":1366:1399   */\n      swap1\n      pop\n        /* \"#utility.yul\":1312:1405   */\n      swap2\n      swap1\n      pop\n      jump\t// out\n        /* \"#utility.yul\":1411:1526   */\n    tag_51:\n        /* \"#utility.yul\":1496:1519   */\n      tag_70\n        /* \"#utility.yul\":1513:1518   */\n      dup2\n        /* \"#utility.yul\":1496:1519   */\n      tag_50\n      jump\t// in\n    tag_70:\n        /* \"#utility.yul\":1491:1494   */\n      dup3\n        /* \"#utility.yul\":1484:1520   */\n      mstore\n        /* \"#utility.yul\":1411:1526   */\n      pop\n      pop\n      jump\t// out\n        /* \"#utility.yul\":1532:1750   */\n    tag_28:\n        /* \"#utility.yul\":1623:1627   */\n      0x00\n        /* \"#utility.yul\":1661:1663   */\n      0x20\n        /* \"#utility.yul\":1650:1659   */\n      dup3\n        /* \"#utility.yul\":1646:1664   */\n      add\n        /* \"#utility.yul\":1638:1664   */\n      swap1\n      pop\n        /* \"#utility.yul\":1674:1743   */\n      tag_72\n        /* \"#utility.yul\":1740:1741   */\n      0x00\n        /* \"#utility.yul\":1729:1738   */\n      dup4\n        /* \"#utility.yul\":1725:1742   */\n      add\n        /* \"#utility.yul\":1716:1722   */\n      dup5\n        /* \"#utility.yul\":1674:1743   */\n      tag_51\n      jump\t// in\n    tag_72:\n        /* \"#utility.yul\":1532:1750   */\n      swap3\n      swap2\n      pop\n      pop\n      jump\t// out\n\n    auxdata: 0xa264697066735822122092dd25ace024e3eab06e61bdc8709ff3a72b1ccf7d6d5cf1593beb56ca411d8a64736f6c634300081e0033\n}\n",
				"bytecode": {
					"linkReferences": {},
					"object": "60806040527fffffffffffffffffffffffffffffffffffffffffffffffffffffffffffffffff5f5560ff60015f6101000a81548160ff021916908360ff1602179055505f6001806101000a81548160ff021916908360ff16021790555061ffff600160026101000a81548161ffff021916908361ffff1602179055505f600160046101000a81548161ffff021916908361ffff16021790555063ffffffff600160066101000a81548163ffffffff021916908363ffffffff1602179055505f6001600a6101000a81548163ffffffff021916908363ffffffff1602179055507fffffffffffffffffffffffffffffffffffffffffffffffffffffffffffffffff6002555f600355348015610111575f5ffd5b506103328061011f5f395ff3fe608060405234801561000f575f5ffd5b5060043610610091575f3560e01c806376cfb3ee1161006457806376cfb3ee1461010d5780639c89a7bd1461012b578063ad5572f814610149578063bbebf55314610167578063c30e11201461018557610091565b806310475e4e146100955780631905d859146100b35780634b275d2a146100d15780635f8b5400146100ef575b5f5ffd5b61009d6101a3565b6040516100aa9190610243565b60405180910390f35b6100bb6101a8565b6040516100c89190610277565b60405180910390f35b6100d96101ba565b6040516100e691906102ac565b60405180910390f35b6100f76101ce565b60405161010491906102e3565b60405180910390f35b6101156101e4565b6040516101229190610277565b60405180910390f35b6101336101f5565b60405161014091906102ac565b60405180910390f35b610151610209565b60405161015e9190610243565b60405180910390f35b61016f61020f565b60405161017c91906102e3565b60405180910390f35b61018d610225565b60405161019a9190610243565b60405180910390f35b5f5481565b60015f9054906101000a900460ff1681565b600160029054906101000a900461ffff1681565b600160069054906101000a900463ffffffff1681565b60018054906101000a900460ff1681565b600160049054906101000a900461ffff1681565b60025481565b6001600a9054906101000a900463ffffffff1681565b60035481565b5f819050919050565b61023d8161022b565b82525050565b5f6020820190506102565f830184610234565b92915050565b5f60ff82169050919050565b6102718161025c565b82525050565b5f60208201905061028a5f830184610268565b92915050565b5f61ffff82169050919050565b6102a681610290565b82525050565b5f6020820190506102bf5f83018461029d565b92915050565b5f63ffffffff82169050919050565b6102dd816102c5565b82525050565b5f6020820190506102f65f8301846102d4565b9291505056fea264697066735822122092dd25ace024e3eab06e61bdc8709ff3a72b1ccf7d6d5cf1593beb56ca411d8a64736f6c634300081e0033",
					"opcodes": "PUSH1 0x80 PUSH1 0x40 MSTORE PUSH32 0xFFFFFFFFFFFFFFFFFFFFFFFFFFFFFFFFFFFFFFFFFFFFFFFFFFFFFFFFFFFFFFFF PUSH0 SSTORE PUSH1 0xFF PUSH1 0x1 PUSH0 PUSH2 0x100 EXP DUP2 SLOAD DUP2 PUSH1 0xFF MUL NOT AND SWAP1 DUP4 PUSH1 0xFF AND MUL OR SWAP1 SSTORE POP PUSH0 PUSH1 0x1 DUP1 PUSH2 0x100 EXP DUP2 SLOAD DUP2 PUSH1 0xFF MUL NOT AND SWAP1 DUP4 PUSH1 0xFF AND MUL OR SWAP1 SSTORE POP PUSH2 0xFFFF PUSH1 0x1 PUSH1 0x2 PUSH2 0x100 EXP DUP2 SLOAD DUP2 PUSH2 0xFFFF MUL NOT AND SWAP1 DUP4 PUSH2 0xFFFF AND MUL OR SWAP1 SSTORE POP PUSH0 PUSH1 0x1 PUSH1 0x4 PUSH2 0x100 EXP DUP2 SLOAD DUP2 PUSH2 0xFFFF MUL NOT AND SWAP1 DUP4 PUSH2 0xFFFF AND MUL OR SWAP1 SSTORE POP PUSH4 0xFFFFFFFF PUSH1 0x1 PUSH1 0x6 PUSH2 0x100 EXP DUP2 SLOAD DUP2 PUSH4 0xFFFFFFFF MUL NOT AND SWAP1 DUP4 PUSH4 0xFFFFFFFF AND MUL OR SWAP1 SSTORE POP PUSH0 PUSH1 0x1 PUSH1 0xA PUSH2 0x100 EXP DUP2 SLOAD DUP2 PUSH4 0xFFFFFFFF MUL NOT AND SWAP1 DUP4 PUSH4 0xFFFFFFFF AND MUL OR SWAP1 SSTORE POP PUSH32 0xFFFFFFFFFFFFFFFFFFFFFFFFFFFFFFFFFFFFFFFFFFFFFFFFFFFFFFFFFFFFFFFF PUSH1 0x2 SSTORE PUSH0 PUSH1 0x3 SSTORE CALLVALUE DUP1 ISZERO PUSH2 0x111 JUMPI PUSH0 PUSH0 REVERT JUMPDEST POP PUSH2 0x332 DUP1 PUSH2 0x11F PUSH0 CODECOPY PUSH0 RETURN INVALID PUSH1 0x80 PUSH1 0x40 MSTORE CALLVALUE DUP1 ISZERO PUSH2 0xF JUMPI PUSH0 PUSH0 REVERT JUMPDEST POP PUSH1 0x4 CALLDATASIZE LT PUSH2 0x91 JUMPI PUSH0 CALLDATALOAD PUSH1 0xE0 SHR DUP1 PUSH4 0x76CFB3EE GT PUSH2 0x64 JUMPI DUP1 PUSH4 0x76CFB3EE EQ PUSH2 0x10D JUMPI DUP1 PUSH4 0x9C89A7BD EQ PUSH2 0x12B JUMPI DUP1 PUSH4 0xAD5572F8 EQ PUSH2 0x149 JUMPI DUP1 PUSH4 0xBBEBF553 EQ PUSH2 0x167 JUMPI DUP1 PUSH4 0xC30E1120 EQ PUSH2 0x185 JUMPI PUSH2 0x91 JUMP JUMPDEST DUP1 PUSH4 0x10475E4E EQ PUSH2 0x95 JUMPI DUP1 PUSH4 0x1905D859 EQ PUSH2 0xB3 JUMPI DUP1 PUSH4 0x4B275D2A EQ PUSH2 0xD1 JUMPI DUP1 PUSH4 0x5F8B5400 EQ PUSH2 0xEF JUMPI JUMPDEST PUSH0 PUSH0 REVERT JUMPDEST PUSH2 0x9D PUSH2 0x1A3 JUMP JUMPDEST PUSH1 0x40 MLOAD PUSH2 0xAA SWAP2 SWAP1 PUSH2 0x243 JUMP JUMPDEST PUSH1 0x40 MLOAD DUP1 SWAP2 SUB SWAP1 RETURN JUMPDEST PUSH2 0xBB PUSH2 0x1A8 JUMP JUMPDEST PUSH1 0x40 MLOAD PUSH2 0xC8 SWAP2 SWAP1 PUSH2 0x277 JUMP JUMPDEST PUSH1 0x40 MLOAD DUP1 SWAP2 SUB SWAP1 RETURN JUMPDEST PUSH2 0xD9 PUSH2 0x1BA JUMP JUMPDEST PUSH1 0x40 MLOAD PUSH2 0xE6 SWAP2 SWAP1 PUSH2 0x2AC JUMP JUMPDEST PUSH1 0x40 MLOAD DUP1 SWAP2 SUB SWAP1 RETURN JUMPDEST PUSH2 0xF7 PUSH2 0x1CE JUMP JUMPDEST PUSH1 0x40 MLOAD PUSH2 0x104 SWAP2 SWAP1 PUSH2 0x2E3 JUMP JUMPDEST PUSH1 0x40 MLOAD DUP1 SWAP2 SUB SWAP1 RETURN JUMPDEST PUSH2 0x115 PUSH2 0x1E4 JUMP JUMPDEST PUSH1 0x40 MLOAD PUSH2 0x122 SWAP2 SWAP1 PUSH2 0x277 JUMP JUMPDEST PUSH1 0x40 MLOAD DUP1 SWAP2 SUB SWAP1 RETURN JUMPDEST PUSH2 0x133 PUSH2 0x1F5 JUMP JUMPDEST PUSH1 0x40 MLOAD PUSH2 0x140 SWAP2 SWAP1 PUSH2 0x2AC JUMP JUMPDEST PUSH1 0x40 MLOAD DUP1 SWAP2 SUB SWAP1 RETURN JUMPDEST PUSH2 0x151 PUSH2 0x209 JUMP JUMPDEST PUSH1 0x40 MLOAD PUSH2 0x15E SWAP2 SWAP1 PUSH2 0x243 JUMP JUMPDEST PUSH1 0x40 MLOAD DUP1 SWAP2 SUB SWAP1 RETURN JUMPDEST PUSH2 0x16F PUSH2 0x20F JUMP JUMPDEST PUSH1 0x40 MLOAD PUSH2 0x17C SWAP2 SWAP1 PUSH2 0x2E3 JUMP JUMPDEST PUSH1 0x40 MLOAD DUP1 SWAP2 SUB SWAP1 RETURN JUMPDEST PUSH2 0x18D PUSH2 0x225 JUMP JUMPDEST PUSH1 0x40 MLOAD PUSH2 0x19A SWAP2 SWAP1 PUSH2 0x243 JUMP JUMPDEST PUSH1 0x40 MLOAD DUP1 SWAP2 SUB SWAP1 RETURN JUMPDEST PUSH0 SLOAD DUP2 JUMP JUMPDEST PUSH1 0x1 PUSH0 SWAP1 SLOAD SWAP1 PUSH2 0x100 EXP SWAP1 DIV PUSH1 0xFF AND DUP2 JUMP JUMPDEST PUSH1 0x1 PUSH1 0x2 SWAP1 SLOAD SWAP1 PUSH2 0x100 EXP SWAP1 DIV PUSH2 0xFFFF AND DUP2 JUMP JUMPDEST PUSH1 0x1 PUSH1 0x6 SWAP1 SLOAD SWAP1 PUSH2 0x100 EXP SWAP1 DIV PUSH4 0xFFFFFFFF AND DUP2 JUMP JUMPDEST PUSH1 0x1 DUP1 SLOAD SWAP1 PUSH2 0x100 EXP SWAP1 DIV PUSH1 0xFF AND DUP2 JUMP JUMPDEST PUSH1 0x1 PUSH1 0x4 SWAP1 SLOAD SWAP1 PUSH2 0x100 EXP SWAP1 DIV PUSH2 0xFFFF AND DUP2 JUMP JUMPDEST PUSH1 0x2 SLOAD DUP2 JUMP JUMPDEST PUSH1 0x1 PUSH1 0xA SWAP1 SLOAD SWAP1 PUSH2 0x100 EXP SWAP1 DIV PUSH4 0xFFFFFFFF AND DUP2 JUMP JUMPDEST PUSH1 0x3 SLOAD DUP2 JUMP JUMPDEST PUSH0 DUP2 SWAP1 POP SWAP2 SWAP1 POP JUMP JUMPDEST PUSH2 0x23D DUP2 PUSH2 0x22B JUMP JUMPDEST DUP3 MSTORE POP POP JUMP JUMPDEST PUSH0 PUSH1 0x20 DUP3 ADD SWAP1 POP PUSH2 0x256 PUSH0 DUP4 ADD DUP5 PUSH2 0x234 JUMP JUMPDEST SWAP3 SWAP2 POP POP JUMP JUMPDEST PUSH0 PUSH1 0xFF DUP3 AND SWAP1 POP SWAP2 SWAP1 POP JUMP JUMPDEST PUSH2 0x271 DUP2 PUSH2 0x25C JUMP JUMPDEST DUP3 MSTORE POP POP JUMP JUMPDEST PUSH0 PUSH1 0x20 DUP3 ADD SWAP1 POP PUSH2 0x28A PUSH0 DUP4 ADD DUP5 PUSH2 0x268 JUMP JUMPDEST SWAP3 SWAP2 POP POP JUMP JUMPDEST PUSH0 PUSH2 0xFFFF DUP3 AND SWAP1 POP SWAP2 SWAP1 POP JUMP JUMPDEST PUSH2 0x2A6 DUP2 PUSH2 0x290 JUMP JUMPDEST DUP3 MSTORE POP POP JUMP JUMPDEST PUSH0 PUSH1 0x20 DUP3 ADD SWAP1 POP PUSH2 0x2BF PUSH0 DUP4 ADD DUP5 PUSH2 0x29D JUMP JUMPDEST SWAP3 SWAP2 POP POP JUMP JUMPDEST PUSH0 PUSH4 0xFFFFFFFF DUP3 AND SWAP1 POP SWAP2 SWAP1 POP JUMP JUMPDEST PUSH2 0x2DD DUP2 PUSH2 0x2C5 JUMP JUMPDEST DUP3 MSTORE POP POP JUMP JUMPDEST PUSH0 PUSH1 0x20 DUP3 ADD SWAP1 POP PUSH2 0x2F6 PUSH0 DUP4 ADD DUP5 PUSH2 0x2D4 JUMP JUMPDEST SWAP3 SWAP2 POP POP JUMP INVALID LOG2 PUSH5 0x6970667358 0x22 SLT KECCAK256 SWAP3 0xDD 0x25 0xAC RJUMP 0x24E3 0xEA 0xB0 PUSH15 0x61BDC8709FF3A72B1CCF7D6D5CF159 EXTCODESIZE 0xEB JUMP 0xCA COINBASE SAR DUP11 PUSH5 0x736F6C6343 STOP ADDMOD 0x1E STOP CALLER "
				},
				"gasEstimates": {
					"creation": {
						"codeDepositCost": "163600",
						"executionCost": "195270",
						"totalCost": "358870"
					},
					"external": {
						"maxValue_uint()": "2425",
						"maxValue_uint16()": "2562",
						"maxValue_uint256()": "2469",
						"maxValue_uint32()": "2584",
						"maxValue_uint8()": "2489",
						"minValue_uint16()": "2539",
						"minValue_uint256()": "2513",
						"minValue_uint32()": "2583",
						"minValue_uint8()": "2514"
					}
				},
				"methodIdentifiers": {
					"maxValue_uint()": "10475e4e",
					"maxValue_uint16()": "4b275d2a",
					"maxValue_uint256()": "ad5572f8",
					"maxValue_uint32()": "5f8b5400",
					"maxValue_uint8()": "1905d859",
					"minValue_uint16()": "9c89a7bd",
					"minValue_uint256()": "c30e1120",
					"minValue_uint32()": "bbebf553",
					"minValue_uint8()": "76cfb3ee"
				}
			},
			"storageLayout": {
				"storage": [
					{
						"astId": 8,
						"contract": "contracts/Find.sol:FindMinMaxValue",
						"label": "maxValue_uint",
						"offset": 0,
						"slot": "0",
						"type": "t_uint256"
					},
					{
						"astId": 15,
						"contract": "contracts/Find.sol:FindMinMaxValue",
						"label": "maxValue_uint8",
						"offset": 0,
						"slot": "1",
						"type": "t_uint8"
					},
					{
						"astId": 22,
						"contract": "contracts/Find.sol:FindMinMaxValue",
						"label": "minValue_uint8",
						"offset": 1,
						"slot": "1",
						"type": "t_uint8"
					},
					{
						"astId": 29,
						"contract": "contracts/Find.sol:FindMinMaxValue",
						"label": "maxValue_uint16",
						"offset": 2,
						"slot": "1",
						"type": "t_uint16"
					},
					{
						"astId": 36,
						"contract": "contracts/Find.sol:FindMinMaxValue",
						"label": "minValue_uint16",
						"offset": 4,
						"slot": "1",
						"type": "t_uint16"
					},
					{
						"astId": 43,
						"contract": "contracts/Find.sol:FindMinMaxValue",
						"label": "maxValue_uint32",
						"offset": 6,
						"slot": "1",
						"type": "t_uint32"
					},
					{
						"astId": 50,
						"contract": "contracts/Find.sol:FindMinMaxValue",
						"label": "minValue_uint32",
						"offset": 10,
						"slot": "1",
						"type": "t_uint32"
					},
					{
						"astId": 57,
						"contract": "contracts/Find.sol:FindMinMaxValue",
						"label": "maxValue_uint256",
						"offset": 0,
						"slot": "2",
						"type": "t_uint256"
					},
					{
						"astId": 64,
						"contract": "contracts/Find.sol:FindMinMaxValue",
						"label": "minValue_uint256",
						"offset": 0,
						"slot": "3",
						"type": "t_uint256"
					}
				],
				"types": {
					"t_uint16": {
						"encoding": "inplace",
						"label": "uint16",
						"numberOfBytes": "2"
					},
					"t_uint256": {
						"encoding": "inplace",
						"label": "uint256",
						"numberOfBytes": "32"
					},
					"t_uint32": {
						"encoding": "inplace",
						"label": "uint32",
						"numberOfBytes": "4"
					},
					"t_uint8": {
						"encoding": "inplace",
						"label": "uint8",
						"numberOfBytes": "1"
					}
				}
			},
			"userdoc": {
				"kind": "user",
				"methods": {},
				"version": 1
			}
		}
	}
}