{
	"data": {
		"bytecode": {
			"linkReferences": {},
			"object": "608060405260055f55600a6001553480156017575f5ffd5b50610491806100255f395ff3fe608060405234801561000f575f5ffd5b5060043610610086575f3560e01c8063d732d95511610059578063d732d95514610114578063e8927fbc14610132578063f3593cd014610150578063f7e80e981461016e57610086565b80630dbe671f1461008a57806332587d46146100a85780634df7e3d0146100d8578063b53b8d7a146100f6575b5f5ffd5b61009261018c565b60405161009f9190610263565b60405180910390f35b6100c260048036038101906100bd91906102aa565b610191565b6040516100cf9190610263565b60405180910390f35b6100e06101c3565b6040516100ed9190610263565b60405180910390f35b6100fe6101c9565b60405161010b9190610263565b60405180910390f35b61011c6101e3565b6040516101299190610263565b60405180910390f35b61013a6101fd565b6040516101479190610263565b60405180910390f35b610158610217565b6040516101659190610263565b60405180910390f35b610176610231565b6040516101839190610263565b60405180910390f35b5f5481565b5f5f60038385876101a29190610327565b6101ac9190610327565b6101b69190610387565b9050809150509392505050565b60015481565b5f5f6001545f546101da9190610387565b90508091505090565b5f5f6001545f546101f491906103b7565b90508091505090565b5f5f6001545f5461020e9190610327565b90508091505090565b5f5f6001545f5461022891906103ea565b90508091505090565b5f5f6001545f54610242919061042b565b90508091505090565b5f819050919050565b61025d8161024b565b82525050565b5f6020820190506102765f830184610254565b92915050565b5f5ffd5b6102898161024b565b8114610293575f5ffd5b50565b5f813590506102a481610280565b92915050565b5f5f5f606084860312156102c1576102c061027c565b5b5f6102ce86828701610296565b93505060206102df86828701610296565b92505060406102f086828701610296565b9150509250925092565b7f4e487b71000000000000000000000000000000000000000000000000000000005f52601160045260245ffd5b5f6103318261024b565b915061033c8361024b565b9250828201905080821115610354576103536102fa565b5b92915050565b7f4e487b71000000000000000000000000000000000000000000000000000000005f52601260045260245ffd5b5f6103918261024b565b915061039c8361024b565b9250826103ac576103ab61035a565b5b828204905092915050565b5f6103c18261024b565b91506103cc8361024b565b92508282039050818111156103e4576103e36102fa565b5b92915050565b5f6103f48261024b565b91506103ff8361024b565b925082820261040d8161024b565b91508282048414831517610424576104236102fa565b5b5092915050565b5f6104358261024b565b91506104408361024b565b9250826104505761044f61035a565b5b82820690509291505056fea26469706673582212200b9217b904ee993637bc4c152df5f60421a5e6357ef9543977c0b584423e86ad64736f6c634300081e0033",
			"opcodes": "PUSH1 0x80 PUSH1 0x40 MSTORE PUSH1 0x5 PUSH0 SSTORE PUSH1 0xA PUSH1 0x1 SSTORE CALLVALUE DUP1 ISZERO PUSH1 0x17 JUMPI PUSH0 PUSH0 REVERT JUMPDEST POP PUSH2 0x491 DUP1 PUSH2 0x25 PUSH0 CODECOPY PUSH0 RETURN INVALID PUSH1 0x80 PUSH1 0x40 MSTORE CALLVALUE DUP1 ISZERO PUSH2 0xF JUMPI PUSH0 PUSH0 REVERT JUMPDEST POP PUSH1 0x4 CALLDATASIZE LT PUSH2 0x86 JUMPI PUSH0 CALLDATALOAD PUSH1 0xE0 SHR DUP1 PUSH4 0xD732D955 GT PUSH2 0x59 JUMPI DUP1 PUSH4 0xD732D955 EQ PUSH2 0x114 JUMPI DUP1 PUSH4 0xE8927FBC EQ PUSH2 0x132 JUMPI DUP1 PUSH4 0xF3593CD0 EQ PUSH2 0x150 JUMPI DUP1 PUSH4 0xF7E80E98 EQ PUSH2 0x16E JUMPI PUSH2 0x86 JUMP JUMPDEST DUP1 PUSH4 0xDBE671F EQ PUSH2 0x8A JUMPI DUP1 PUSH4 0x32587D46 EQ PUSH2 0xA8 JUMPI DUP1 PUSH4 0x4DF7E3D0 EQ PUSH2 0xD8 JUMPI DUP1 PUSH4 0xB53B8D7A EQ PUSH2 0xF6 JUMPI JUMPDEST PUSH0 PUSH0 REVERT JUMPDEST PUSH2 0x92 PUSH2 0x18C JUMP JUMPDEST PUSH1 0x40 MLOAD PUSH2 0x9F SWAP2 SWAP1 PUSH2 0x263 JUMP JUMPDEST PUSH1 0x40 MLOAD DUP1 SWAP2 SUB SWAP1 RETURN JUMPDEST PUSH2 0xC2 PUSH1 0x4 DUP1 CALLDATASIZE SUB DUP2 ADD SWAP1 PUSH2 0xBD SWAP2 SWAP1 PUSH2 0x2AA JUMP JUMPDEST PUSH2 0x191 JUMP JUMPDEST PUSH1 0x40 MLOAD PUSH2 0xCF SWAP2 SWAP1 PUSH2 0x263 JUMP JUMPDEST PUSH1 0x40 MLOAD DUP1 SWAP2 SUB SWAP1 RETURN JUMPDEST PUSH2 0xE0 PUSH2 0x1C3 JUMP JUMPDEST PUSH1 0x40 MLOAD PUSH2 0xED SWAP2 SWAP1 PUSH2 0x263 JUMP JUMPDEST PUSH1 0x40 MLOAD DUP1 SWAP2 SUB SWAP1 RETURN JUMPDEST PUSH2 0xFE PUSH2 0x1C9 JUMP JUMPDEST PUSH1 0x40 MLOAD PUSH2 0x10B SWAP2 SWAP1 PUSH2 0x263 JUMP JUMPDEST PUSH1 0x40 MLOAD DUP1 SWAP2 SUB SWAP1 RETURN JUMPDEST PUSH2 0x11C PUSH2 0x1E3 JUMP JUMPDEST PUSH1 0x40 MLOAD PUSH2 0x129 SWAP2 SWAP1 PUSH2 0x263 JUMP JUMPDEST PUSH1 0x40 MLOAD DUP1 SWAP2 SUB SWAP1 RETURN JUMPDEST PUSH2 0x13A PUSH2 0x1FD JUMP JUMPDEST PUSH1 0x40 MLOAD PUSH2 0x147 SWAP2 SWAP1 PUSH2 0x263 JUMP JUMPDEST PUSH1 0x40 MLOAD DUP1 SWAP2 SUB SWAP1 RETURN JUMPDEST PUSH2 0x158 PUSH2 0x217 JUMP JUMPDEST PUSH1 0x40 MLOAD PUSH2 0x165 SWAP2 SWAP1 PUSH2 0x263 JUMP JUMPDEST PUSH1 0x40 MLOAD DUP1 SWAP2 SUB SWAP1 RETURN JUMPDEST PUSH2 0x176 PUSH2 0x231 JUMP JUMPDEST PUSH1 0x40 MLOAD PUSH2 0x183 SWAP2 SWAP1 PUSH2 0x263 JUMP JUMPDEST PUSH1 0x40 MLOAD DUP1 SWAP2 SUB SWAP1 RETURN JUMPDEST PUSH0 SLOAD DUP2 JUMP JUMPDEST PUSH0 PUSH0 PUSH1 0x3 DUP4 DUP6 DUP8 PUSH2 0x1A2 SWAP2 SWAP1 PUSH2 0x327 JUMP JUMPDEST PUSH2 0x1AC SWAP2 SWAP1 PUSH2 0x327 JUMP JUMPDEST PUSH2 0x1B6 SWAP2 SWAP1 PUSH2 0x387 JUMP JUMPDEST SWAP1 POP DUP1 SWAP2 POP POP SWAP4 SWAP3 POP POP POP JUMP JUMPDEST PUSH1 0x1 SLOAD DUP2 JUMP JUMPDEST PUSH0 PUSH0 PUSH1 0x1 SLOAD PUSH0 SLOAD PUSH2 0x1DA SWAP2 SWAP1 PUSH2 0x387 JUMP JUMPDEST SWAP1 POP DUP1 SWAP2 POP POP SWAP1 JUMP JUMPDEST PUSH0 PUSH0 PUSH1 0x1 SLOAD PUSH0 SLOAD PUSH2 0x1F4 SWAP2 SWAP1 PUSH2 0x3B7 JUMP JUMPDEST SWAP1 POP DUP1 SWAP2 POP POP SWAP1 JUMP JUMPDEST PUSH0 PUSH0 PUSH1 0x1 SLOAD PUSH0 SLOAD PUSH2 0x20E SWAP2 SWAP1 PUSH2 0x327 JUMP JUMPDEST SWAP1 POP DUP1 SWAP2 POP POP SWAP1 JUMP JUMPDEST PUSH0 PUSH0 PUSH1 0x1 SLOAD PUSH0 SLOAD PUSH2 0x228 SWAP2 SWAP1 PUSH2 0x3EA JUMP JUMPDEST SWAP1 POP DUP1 SWAP2 POP POP SWAP1 JUMP JUMPDEST PUSH0 PUSH0 PUSH1 0x1 SLOAD PUSH0 SLOAD PUSH2 0x242 SWAP2 SWAP1 PUSH2 0x42B JUMP JUMPDEST SWAP1 POP DUP1 SWAP2 POP POP SWAP1 JUMP JUMPDEST PUSH0 DUP2 SWAP1 POP SWAP2 SWAP1 POP JUMP JUMPDEST PUSH2 0x25D DUP2 PUSH2 0x24B JUMP JUMPDEST DUP3 MSTORE POP POP JUMP JUMPDEST PUSH0 PUSH1 0x20 DUP3 ADD SWAP1 POP PUSH2 0x276 PUSH0 DUP4 ADD DUP5 PUSH2 0x254 JUMP JUMPDEST SWAP3 SWAP2 POP POP JUMP JUMPDEST PUSH0 PUSH0 REVERT JUMPDEST PUSH2 0x289 DUP2 PUSH2 0x24B JUMP JUMPDEST DUP2 EQ PUSH2 0x293 JUMPI PUSH0 PUSH0 REVERT JUMPDEST POP JUMP JUMPDEST PUSH0 DUP2 CALLDATALOAD SWAP1 POP PUSH2 0x2A4 DUP2 PUSH2 0x280 JUMP JUMPDEST SWAP3 SWAP2 POP POP JUMP JUMPDEST PUSH0 PUSH0 PUSH0 PUSH1 0x60 DUP5 DUP7 SUB SLT ISZERO PUSH2 0x2C1 JUMPI PUSH2 0x2C0 PUSH2 0x27C JUMP JUMPDEST JUMPDEST PUSH0 PUSH2 0x2CE DUP7 DUP3 DUP8 ADD PUSH2 0x296 JUMP JUMPDEST SWAP4 POP POP PUSH1 0x20 PUSH2 0x2DF DUP7 DUP3 DUP8 ADD PUSH2 0x296 JUMP JUMPDEST SWAP3 POP POP PUSH1 0x40 PUSH2 0x2F0 DUP7 DUP3 DUP8 ADD PUSH2 0x296 JUMP JUMPDEST SWAP2 POP POP SWAP3 POP SWAP3 POP SWAP3 JUMP JUMPDEST PUSH32 0x4E487B7100000000000000000000000000000000000000000000000000000000 PUSH0 MSTORE PUSH1 0x11 PUSH1 0x4 MSTORE PUSH1 0x24 PUSH0 REVERT JUMPDEST PUSH0 PUSH2 0x331 DUP3 PUSH2 0x24B JUMP JUMPDEST SWAP2 POP PUSH2 0x33C DUP4 PUSH2 0x24B JUMP JUMPDEST SWAP3 POP DUP3 DUP3 ADD SWAP1 POP DUP1 DUP3 GT ISZERO PUSH2 0x354 JUMPI PUSH2 0x353 PUSH2 0x2FA JUMP JUMPDEST JUMPDEST SWAP3 SWAP2 POP POP JUMP JUMPDEST PUSH32 0x4E487B7100000000000000000000000000000000000000000000000000000000 PUSH0 MSTORE PUSH1 0x12 PUSH1 0x4 MSTORE PUSH1 0x24 PUSH0 REVERT JUMPDEST PUSH0 PUSH2 0x391 DUP3 PUSH2 0x24B JUMP JUMPDEST SWAP2 POP PUSH2 0x39C DUP4 PUSH2 0x24B JUMP JUMPDEST SWAP3 POP DUP3 PUSH2 0x3AC JUMPI PUSH2 0x3AB PUSH2 0x35A JUMP JUMPDEST JUMPDEST DUP3 DUP3 DIV SWAP1 POP SWAP3 SWAP2 POP POP JUMP JUMPDEST PUSH0 PUSH2 0x3C1 DUP3 PUSH2 0x24B JUMP JUMPDEST SWAP2 POP PUSH2 0x3CC DUP4 PUSH2 0x24B JUMP JUMPDEST SWAP3 POP DUP3 DUP3 SUB SWAP1 POP DUP2 DUP2 GT ISZERO PUSH2 0x3E4 JUMPI PUSH2 0x3E3 PUSH2 0x2FA JUMP JUMPDEST JUMPDEST SWAP3 SWAP2 POP POP JUMP JUMPDEST PUSH0 PUSH2 0x3F4 DUP3 PUSH2 0x24B JUMP JUMPDEST SWAP2 POP PUSH2 0x3FF DUP4 PUSH2 0x24B JUMP JUMPDEST SWAP3 POP DUP3 DUP3 MUL PUSH2 0x40D DUP2 PUSH2 0x24B JUMP JUMPDEST SWAP2 POP DUP3 DUP3 DIV DUP5 EQ DUP4 ISZERO OR PUSH2 0x424 JUMPI PUSH2 0x423 PUSH2 0x2FA JUMP JUMPDEST JUMPDEST POP SWAP3 SWAP2 POP POP JUMP JUMPDEST PUSH0 PUSH2 0x435 DUP3 PUSH2 0x24B JUMP JUMPDEST SWAP2 POP PUSH2 0x440 DUP4 PUSH2 0x24B JUMP JUMPDEST SWAP3 POP DUP3 PUSH2 0x450 JUMPI PUSH2 0x44F PUSH2 0x35A JUMP JUMPDEST JUMPDEST DUP3 DUP3 MOD SWAP1 POP SWAP3 SWAP2 POP POP JUMP INVALID LOG2 PUSH5 0x6970667358 0x22 SLT KECCAK256 SIGNEXTEND SWAP3 OR 0xB9 DIV RETURNCONTRACT 0x99 CALLDATASIZE CALLDATACOPY 0xBC 0x4C ISZERO 0x2D CREATE2 0xF6 DIV 0x21 0xA5 DUPN 0x35 PUSH31 0xF9543977C0B584423E86AD64736F6C634300081E0033000000000000000000 "
		},
		"gasEstimates": {
			"creation": {
				"codeDepositCost": "233800",
				"executionCost": "44484",
				"totalCost": "278284"
			},
			"external": {
				"a()": "2425",
				"avge(uint256,uint256,uint256)": "infinite",
				"b()": "2470",
				"decrease()": "infinite",
				"divide()": "infinite",
				"increase()": "infinite",
				"modules()": "infinite",
				"multiply()": "infinite"
			}
		},
		"methodIdentifiers": {
			"a()": "0dbe671f",
			"avge(uint256,uint256,uint256)": "32587d46",
			"b()": "4df7e3d0",
			"decrease()": "d732d955",
			"divide()": "b53b8d7a",
			"increase()": "e8927fbc",
			"modules()": "f7e80e98",
			"multiply()": "f3593cd0"
		}
	},
	"abi": [
		{
			"inputs": [],
			"name": "a",
			"outputs": [
				{
					"internalType": "uint256",
					"name": "",
					"type": "uint256"
				}
			],
			"stateMutability": "view",
			"type": "function"
		},
		{
			"inputs": [
				{
					"internalType": "uint256",
					"name": "x",
					"type": "uint256"
				},
				{
					"internalType": "uint256",
					"name": "y",
					"type": "uint256"
				},
				{
					"internalType": "uint256",
					"name": "z",
					"type": "uint256"
				}
			],
			"name": "avge",
			"outputs": [
				{
					"internalType": "uint256",
					"name": "",
					"type": "uint256"
				}
			],
			"stateMutability": "pure",
			"type": "function"
		},
		{
			"inputs": [],
			"name": "b",
			"outputs": [
				{
					"internalType": "uint256",
					"name": "",
					"type": "uint256"
				}
			],
			"stateMutability": "view",
			"type": "function"
		},
		{
			"inputs": [],
			"name": "decrease",
			"outputs": [
				{
					"internalType": "uint256",
					"name": "",
					"type": "uint256"
				}
			],
			"stateMutability": "view",
			"type": "function"
		},
		{
			"inputs": [],
			"name": "divide",
			"outputs": [
				{
					"internalType": "uint256",
					"name": "",
					"type": "uint256"
				}
			],
			"stateMutability": "view",
			"type": "function"
		},
		{
			"inputs": [],
			"name": "increase",
			"outputs": [
				{
					"internalType": "uint256",
					"name": "",
					"type": "uint256"
				}
			],
			"stateMutability": "view",
			"type": "function"
		},
		{
			"inputs": [],
			"name": "modules",
			"outputs": [
				{
					"internalType": "uint256",
					"name": "",
					"type": "uint256"
				}
			],
			"stateMutability": "view",
			"type": "function"
		},
		{
			"inputs": [],
			"name": "multiply",
			"outputs": [
				{
					"internalType": "uint256",
					"name": "",
					"type": "uint256"
				}
			],
			"stateMutability": "view",
			"type": "function"
		}
	]
}